{
  "contractName": "HealthCare",
  "abi": [
    {
      "inputs": [
        {
          "internalType": "address",
          "name": "_labAdmin",
          "type": "address"
        }
      ],
      "stateMutability": "nonpayable",
      "type": "constructor"
    },
    {
      "anonymous": false,
      "inputs": [
        {
          "indexed": false,
          "internalType": "uint256",
          "name": "ID",
          "type": "uint256"
        },
        {
          "indexed": false,
          "internalType": "string",
          "name": "testName",
          "type": "string"
        },
        {
          "indexed": false,
          "internalType": "string",
          "name": "date",
          "type": "string"
        },
        {
          "indexed": false,
          "internalType": "string",
          "name": "hospitalName",
          "type": "string"
        },
        {
          "indexed": false,
          "internalType": "uint256",
          "name": "price",
          "type": "uint256"
        }
      ],
      "name": "recordCreated",
      "type": "event"
    },
    {
      "anonymous": false,
      "inputs": [
        {
          "indexed": false,
          "internalType": "uint256",
          "name": "ID",
          "type": "uint256"
        },
        {
          "indexed": false,
          "internalType": "string",
          "name": "testName",
          "type": "string"
        },
        {
          "indexed": false,
          "internalType": "string",
          "name": "date",
          "type": "string"
        },
        {
          "indexed": false,
          "internalType": "string",
          "name": "hospitalName",
          "type": "string"
        },
        {
          "indexed": false,
          "internalType": "uint256",
          "name": "price",
          "type": "uint256"
        }
      ],
      "name": "recordSigned",
      "type": "event"
    },
    {
      "inputs": [
        {
          "internalType": "uint256",
          "name": "",
          "type": "uint256"
        }
      ],
      "name": "_records",
      "outputs": [
        {
          "internalType": "uint256",
          "name": "ID",
          "type": "uint256"
        },
        {
          "internalType": "uint256",
          "name": "price",
          "type": "uint256"
        },
        {
          "internalType": "uint256",
          "name": "signatureCount",
          "type": "uint256"
        },
        {
          "internalType": "string",
          "name": "testName",
          "type": "string"
        },
        {
          "internalType": "string",
          "name": "date",
          "type": "string"
        },
        {
          "internalType": "string",
          "name": "hospitalName",
          "type": "string"
        },
        {
          "internalType": "bool",
          "name": "isValue",
          "type": "bool"
        },
        {
          "internalType": "address",
          "name": "pAddr",
          "type": "address"
        }
      ],
      "stateMutability": "view",
      "type": "function"
    },
    {
      "inputs": [],
      "name": "hospitalAdmin",
      "outputs": [
        {
          "internalType": "address",
          "name": "",
          "type": "address"
        }
      ],
      "stateMutability": "view",
      "type": "function"
    },
    {
      "inputs": [],
      "name": "labAdmin",
      "outputs": [
        {
          "internalType": "address",
          "name": "",
          "type": "address"
        }
      ],
      "stateMutability": "view",
      "type": "function"
    },
    {
      "inputs": [
        {
          "internalType": "uint256",
          "name": "",
          "type": "uint256"
        }
      ],
      "name": "recordsArr",
      "outputs": [
        {
          "internalType": "uint256",
          "name": "",
          "type": "uint256"
        }
      ],
      "stateMutability": "view",
      "type": "function"
    },
    {
      "inputs": [
        {
          "internalType": "uint256",
          "name": "_ID",
          "type": "uint256"
        },
        {
          "internalType": "string",
          "name": "_tName",
          "type": "string"
        },
        {
          "internalType": "string",
          "name": "_date",
          "type": "string"
        },
        {
          "internalType": "string",
          "name": "hName",
          "type": "string"
        },
        {
          "internalType": "uint256",
          "name": "price",
          "type": "uint256"
        }
      ],
      "name": "newRecord",
      "outputs": [],
      "stateMutability": "nonpayable",
      "type": "function"
    },
    {
      "inputs": [
        {
          "internalType": "uint256",
          "name": "_ID",
          "type": "uint256"
        }
      ],
      "name": "signRecord",
      "outputs": [],
      "stateMutability": "nonpayable",
      "type": "function"
    }
  ],
  "bytecode": "0x60806040523480156200001157600080fd5b506040516200170938038062001709833981810160405281019062000037919062000129565b336000806101000a81548173ffffffffffffffffffffffffffffffffffffffff021916908373ffffffffffffffffffffffffffffffffffffffff16021790555080600160006101000a81548173ffffffffffffffffffffffffffffffffffffffff021916908373ffffffffffffffffffffffffffffffffffffffff160217905550506200015b565b600080fd5b600073ffffffffffffffffffffffffffffffffffffffff82169050919050565b6000620000f182620000c4565b9050919050565b6200010381620000e4565b81146200010f57600080fd5b50565b6000815190506200012381620000f8565b92915050565b600060208284031215620001425762000141620000bf565b5b6000620001528482850162000112565b91505092915050565b61159e806200016b6000396000f3fe608060405234801561001057600080fd5b506004361061007f576000357c01000000000000000000000000000000000000000000000000000000009004806317aa7fcb14610084578063549b39fc146100a057806386c8ce7f146100d0578063a508d0ed146100ee578063ee96b9eb1461010a578063f9db398214610141575b600080fd5b61009e60048036038101906100999190610b10565b61015f565b005b6100ba60048036038101906100b59190610bdf565b610302565b6040516100c79190610c1b565b60405180910390f35b6100d8610326565b6040516100e59190610c77565b60405180910390f35b61010860048036038101906101039190610bdf565b61034c565b005b610124600480360381019061011f9190610bdf565b61074f565b604051610138989796959493929190610d2c565b60405180910390f35b61014961095c565b6040516101569190610c77565b60405180910390f35b846002600082815260200190815260200160002060060160009054906101000a900460ff16156101c4576040517f08c379a00000000000000000000000000000000000000000000000000000000081526004016101bb90610e31565b60405180910390fd5b6000600260008881526020019081526020016000209050338160060160016101000a81548173ffffffffffffffffffffffffffffffffffffffff021916908373ffffffffffffffffffffffffffffffffffffffff160217905550868160000181905550858160030190816102389190611063565b508481600401908161024a9190611063565b508381600501908161025c9190611063565b5082816001018190555060018160060160006101000a81548160ff0219169083151502179055506000816002018190555060038790806001815401808255809150506001900390600052602060002001600090919091909150557fc20f59e9d68948c943c420ad03b09ad5b4b7feccfe038eb67e9845033df38e108160000154878787876040516102f1959493929190611135565b60405180910390a150505050505050565b6003818154811061031257600080fd5b906000526020600020016000915090505481565b600160009054906101000a900473ffffffffffffffffffffffffffffffffffffffff1681565b60008054906101000a900473ffffffffffffffffffffffffffffffffffffffff1673ffffffffffffffffffffffffffffffffffffffff163373ffffffffffffffffffffffffffffffffffffffff1614806103f35750600160009054906101000a900473ffffffffffffffffffffffffffffffffffffffff1673ffffffffffffffffffffffffffffffffffffffff163373ffffffffffffffffffffffffffffffffffffffff16145b610432576040517f08c379a00000000000000000000000000000000000000000000000000000000081526004016104299061120f565b60405180910390fd5b806002600082815260200190815260200160002060060160009054906101000a900460ff16610496576040517f08c379a000000000000000000000000000000000000000000000000000000000815260040161048d9061127b565b60405180910390fd5b6002600082815260200190815260200160002060060160019054906101000a900473ffffffffffffffffffffffffffffffffffffffff1673ffffffffffffffffffffffffffffffffffffffff16600073ffffffffffffffffffffffffffffffffffffffff160361053b576040517f08c379a0000000000000000000000000000000000000000000000000000000008152600401610532906112e7565b60405180910390fd5b6002600082815260200190815260200160002060060160019054906101000a900473ffffffffffffffffffffffffffffffffffffffff1673ffffffffffffffffffffffffffffffffffffffff163373ffffffffffffffffffffffffffffffffffffffff16036105df576040517f08c379a00000000000000000000000000000000000000000000000000000000081526004016105d690611379565b60405180910390fd5b60016002600083815260200190815260200160002060070160003373ffffffffffffffffffffffffffffffffffffffff1673ffffffffffffffffffffffffffffffffffffffff1681526020019081526020016000205403610675576040517f08c379a000000000000000000000000000000000000000000000000000000000815260040161066c906113e5565b60405180910390fd5b600060026000848152602001908152602001600020905060018160070160003373ffffffffffffffffffffffffffffffffffffffff1673ffffffffffffffffffffffffffffffffffffffff168152602001908152602001600020819055508060020160008154809291906106e890611434565b9190505550600281600201540361074a577fc2f555c23b76b78740a06bbfda9d00e05b6234a7e1123d7408fe22f39eaeb81f81600001548260030183600401846005018560010154604051610741959493929190611500565b60405180910390a15b505050565b600260205280600052604060002060009150905080600001549080600101549080600201549080600301805461078490610e80565b80601f01602080910402602001604051908101604052809291908181526020018280546107b090610e80565b80156107fd5780601f106107d2576101008083540402835291602001916107fd565b820191906000526020600020905b8154815290600101906020018083116107e057829003601f168201915b50505050509080600401805461081290610e80565b80601f016020809104026020016040519081016040528092919081815260200182805461083e90610e80565b801561088b5780601f106108605761010080835404028352916020019161088b565b820191906000526020600020905b81548152906001019060200180831161086e57829003601f168201915b5050505050908060050180546108a090610e80565b80601f01602080910402602001604051908101604052809291908181526020018280546108cc90610e80565b80156109195780601f106108ee57610100808354040283529160200191610919565b820191906000526020600020905b8154815290600101906020018083116108fc57829003601f168201915b5050505050908060060160009054906101000a900460ff16908060060160019054906101000a900473ffffffffffffffffffffffffffffffffffffffff16905088565b60008054906101000a900473ffffffffffffffffffffffffffffffffffffffff1681565b6000604051905090565b600080fd5b600080fd5b6000819050919050565b6109a781610994565b81146109b257600080fd5b50565b6000813590506109c48161099e565b92915050565b600080fd5b600080fd5b6000601f19601f8301169050919050565b7f4e487b7100000000000000000000000000000000000000000000000000000000600052604160045260246000fd5b610a1d826109d4565b810181811067ffffffffffffffff82111715610a3c57610a3b6109e5565b5b80604052505050565b6000610a4f610980565b9050610a5b8282610a14565b919050565b600067ffffffffffffffff821115610a7b57610a7a6109e5565b5b610a84826109d4565b9050602081019050919050565b82818337600083830152505050565b6000610ab3610aae84610a60565b610a45565b905082815260208101848484011115610acf57610ace6109cf565b5b610ada848285610a91565b509392505050565b600082601f830112610af757610af66109ca565b5b8135610b07848260208601610aa0565b91505092915050565b600080600080600060a08688031215610b2c57610b2b61098a565b5b6000610b3a888289016109b5565b955050602086013567ffffffffffffffff811115610b5b57610b5a61098f565b5b610b6788828901610ae2565b945050604086013567ffffffffffffffff811115610b8857610b8761098f565b5b610b9488828901610ae2565b935050606086013567ffffffffffffffff811115610bb557610bb461098f565b5b610bc188828901610ae2565b9250506080610bd2888289016109b5565b9150509295509295909350565b600060208284031215610bf557610bf461098a565b5b6000610c03848285016109b5565b91505092915050565b610c1581610994565b82525050565b6000602082019050610c306000830184610c0c565b92915050565b600073ffffffffffffffffffffffffffffffffffffffff82169050919050565b6000610c6182610c36565b9050919050565b610c7181610c56565b82525050565b6000602082019050610c8c6000830184610c68565b92915050565b600081519050919050565b600082825260208201905092915050565b60005b83811015610ccc578082015181840152602081019050610cb1565b60008484015250505050565b6000610ce382610c92565b610ced8185610c9d565b9350610cfd818560208601610cae565b610d06816109d4565b840191505092915050565b60008115159050919050565b610d2681610d11565b82525050565b600061010082019050610d42600083018b610c0c565b610d4f602083018a610c0c565b610d5c6040830189610c0c565b8181036060830152610d6e8188610cd8565b90508181036080830152610d828187610cd8565b905081810360a0830152610d968186610cd8565b9050610da560c0830185610d1d565b610db260e0830184610c68565b9998505050505050505050565b7f5265636f72642077697468207468697320494420616c7265616479206578697360008201527f7473000000000000000000000000000000000000000000000000000000000000602082015250565b6000610e1b602283610c9d565b9150610e2682610dbf565b604082019050919050565b60006020820190508181036000830152610e4a81610e0e565b9050919050565b7f4e487b7100000000000000000000000000000000000000000000000000000000600052602260045260246000fd5b60006002820490506001821680610e9857607f821691505b602082108103610eab57610eaa610e51565b5b50919050565b60008190508160005260206000209050919050565b60006020601f8301049050919050565b60008160020a8302905092915050565b600060088302610f167fffffffffffffffffffffffffffffffffffffffffffffffffffffffffffffffff82610ed6565b610f208683610ed6565b95508019841693508086168417925050509392505050565b6000819050919050565b6000610f5d610f58610f5384610994565b610f38565b610994565b9050919050565b6000819050919050565b610f7783610f42565b610f8b610f8382610f64565b848454610ee6565b825550505050565b600090565b610fa0610f93565b610fab818484610f6e565b505050565b5b81811015610fcf57610fc4600082610f98565b600181019050610fb1565b5050565b601f82111561101457610fe581610eb1565b610fee84610ec6565b81016020851015610ffd578190505b61101161100985610ec6565b830182610fb0565b50505b505050565b60008160020a8304905092915050565b600061103a60001984600802611019565b1980831691505092915050565b60006110538383611029565b9150826002028217905092915050565b61106c82610c92565b67ffffffffffffffff811115611085576110846109e5565b5b61108f8254610e80565b61109a828285610fd3565b600060209050601f8311600181146110cd57600084156110bb578287015190505b6110c58582611047565b86555061112d565b601f1984166110db86610eb1565b60005b82811015611103578489015182556001820191506020850194506020810190506110de565b86831015611120578489015161111c601f891682611029565b8355505b6001600288020188555050505b505050505050565b600060a08201905061114a6000830188610c0c565b818103602083015261115c8187610cd8565b905081810360408301526111708186610cd8565b905081810360608301526111848185610cd8565b90506111936080830184610c0c565b9695505050505050565b7f596f7520617265206e6f7420617574686f72697a656420746f207369676e207460008201527f6869732e00000000000000000000000000000000000000000000000000000000602082015250565b60006111f9602483610c9d565b91506112048261119d565b604082019050919050565b60006020820190508181036000830152611228816111ec565b9050919050565b7f5265636f72656420646f6573206e6f7420657869737400000000000000000000600082015250565b6000611265601683610c9d565b91506112708261122f565b602082019050919050565b6000602082019050818103600083015261129481611258565b9050919050565b7f41646472657373206973207a65726f0000000000000000000000000000000000600082015250565b60006112d1600f83610c9d565b91506112dc8261129b565b602082019050919050565b60006020820190508181036000830152611300816112c4565b9050919050565b7f596f7520617265206e6f7420617574686f72697a656420746f20706572666f7260008201527f6d207468697320616374696f6e00000000000000000000000000000000000000602082015250565b6000611363602d83610c9d565b915061136e82611307565b604082019050919050565b6000602082019050818103600083015261139281611356565b9050919050565b7f53616d6520706572736f6e2063616e6e6f74207369676e2074776963652e0000600082015250565b60006113cf601e83610c9d565b91506113da82611399565b602082019050919050565b600060208201905081810360008301526113fe816113c2565b9050919050565b7f4e487b7100000000000000000000000000000000000000000000000000000000600052601160045260246000fd5b600061143f82610994565b91507fffffffffffffffffffffffffffffffffffffffffffffffffffffffffffffffff820361147157611470611405565b5b600182019050919050565b6000815461148981610e80565b6114938186610c9d565b945060018216600081146114ae57600181146114c4576114f7565b60ff1983168652811515602002860193506114f7565b6114cd85610eb1565b60005b838110156114ef578154818901526001820191506020810190506114d0565b808801955050505b50505092915050565b600060a0820190506115156000830188610c0c565b8181036020830152611527818761147c565b9050818103604083015261153b818661147c565b9050818103606083015261154f818561147c565b905061155e6080830184610c0c565b969550505050505056fea264697066735822122062cd146f76a2a3a714982665f152ad76e1c639a49ae3703cdefd76b07f7b0c4f64736f6c63430008110033",
  "immutableReferences": {},
  "source": "// SPDX-License-Identifier: MIT\npragma solidity ^0.8.0;\n\ncontract HealthCare {\n    address public hospitalAdmin;\n    address public labAdmin;\n\n    struct Record {\n        uint256 ID;\n        uint256 price;\n        uint256 signatureCount;\n        string testName;\n        string date;\n        string hospitalName;\n        bool isValue;\n        address pAddr;\n        mapping (address => uint256) signatures;\n    }\n\n    constructor(address _labAdmin) {\n        hospitalAdmin = msg.sender;\n        labAdmin = _labAdmin;\n    }\n\n    // Mapping to store records\n    mapping (uint256=> Record) public _records;\n    uint256[] public recordsArr;\n\n    event recordCreated(uint256 ID, string testName, string date, string hospitalName, uint256 price);\n    event recordSigned(uint256 ID, string testName, string date, string hospitalName, uint256 price);\n\n    modifier signOnly {\n        require (msg.sender == hospitalAdmin || msg.sender == labAdmin, \"You are not authorized to sign this.\");\n        _;\n    }\n\n    modifier checkAuthBeforeSign(uint256 _ID) {\n        require(_records[_ID].isValue, \"Recored does not exist\");\n        require(address(0) != _records[_ID].pAddr, \"Address is zero\");\n        require(msg.sender != _records[_ID].pAddr, \"You are not authorized to perform this action\");\n        require(_records[_ID].signatures[msg.sender] != 1, \"Same person cannot sign twice.\");\n        _;\n\n    }\n\n    modifier validateRecord(uint256 _ID) {\n        // Only allows new records to be created\n        require(!_records[_ID].isValue, \"Record with this ID already exists\");\n        _;\n    }\n\n    // Create new record\n    function newRecord (\n        uint256 _ID,\n        string memory _tName,\n        string memory _date,\n        string memory hName,\n        uint256 price\n    )\n    validateRecord(_ID) public {\n        Record storage _newrecord = _records[_ID];\n        _newrecord.pAddr = msg.sender;\n        _newrecord.ID = _ID;\n        _newrecord.testName = _tName;\n        _newrecord.date = _date;\n        _newrecord.hospitalName = hName;\n        _newrecord.price = price;\n        _newrecord.isValue = true;\n        _newrecord.signatureCount = 0;\n\n        recordsArr.push(_ID);\n        emit  recordCreated(_newrecord.ID, _tName, _date, hName, price);\n    }\n\n    // Function to sign a record\n    function signRecord(uint256 _ID) signOnly checkAuthBeforeSign(_ID) public {\n        Record storage records = _records[_ID];\n        records.signatures[msg.sender] = 1;\n        records.signatureCount++;\n\n        // Checks if the record has been signed by both the authorities to process insurance claim\n        if(records.signatureCount == 2)\n            emit  recordSigned(records.ID, records.testName, records.date, records.hospitalName, records.price);\n\n    }\n}\n",
  "sourcePath": "/home/shivam/github/Healthcare_insurance_claim_btp/contracts/HealthCare.sol",
  "compiler": {
    "name": "solc",
    "version": "0.8.17+commit.8df45f5f.Emscripten.clang"
  },
  "schemaVersion": "3.4.10",
  "updatedAt": "2022-11-19T11:58:59.341Z",
  "devdoc": {
    "kind": "dev",
    "methods": {},
    "version": 1
  },
  "userdoc": {
    "kind": "user",
    "methods": {},
    "version": 1
  }
}